{
  "abi": [
    {
      "inputs": [],
      "name": "BountyClosed",
      "type": "error"
    },
    {
      "inputs": [
        {
          "internalType": "address",
          "name": "sender",
          "type": "address"
        },
        {
          "internalType": "address",
          "name": "owner",
          "type": "address"
        }
      ],
      "name": "CallerNotOwner",
      "type": "error"
    },
    {
      "inputs": [
        {
          "internalType": "uint256",
          "name": "index",
          "type": "uint256"
        }
      ],
      "name": "IndexOutOfBounds",
      "type": "error"
    },
    {
      "inputs": [],
      "name": "RequestClosed",
      "type": "error"
    },
    {
      "anonymous": false,
      "inputs": [
        {
          "indexed": true,
          "internalType": "address",
          "name": "sender",
          "type": "address"
        },
        {
          "indexed": true,
          "internalType": "address",
          "name": "receiver",
          "type": "address"
        },
        {
          "indexed": true,
          "internalType": "address",
          "name": "paymentToken",
          "type": "address"
        },
        {
          "indexed": false,
          "internalType": "uint256",
          "name": "amount",
          "type": "uint256"
        }
      ],
      "name": "BountyAdded",
      "type": "event"
    },
    {
      "anonymous": false,
      "inputs": [
        {
          "indexed": true,
          "internalType": "uint256",
          "name": "bountyId",
          "type": "uint256"
        }
      ],
      "name": "BountyClosedByOwner",
      "type": "event"
    },
    {
      "anonymous": false,
      "inputs": [
        {
          "indexed": true,
          "internalType": "uint256",
          "name": "bountyId",
          "type": "uint256"
        },
        {
          "indexed": true,
          "internalType": "uint256",
          "name": "requestId",
          "type": "uint256"
        },
        {
          "indexed": true,
          "internalType": "address",
          "name": "hunter",
          "type": "address"
        }
      ],
      "name": "BountyFinished",
      "type": "event"
    },
    {
      "anonymous": false,
      "inputs": [
        {
          "indexed": true,
          "internalType": "uint256",
          "name": "bountId",
          "type": "uint256"
        },
        {
          "indexed": true,
          "internalType": "address",
          "name": "hunter",
          "type": "address"
        },
        {
          "indexed": true,
          "internalType": "address",
          "name": "boutyToken",
          "type": "address"
        },
        {
          "indexed": false,
          "internalType": "uint256",
          "name": "amount",
          "type": "uint256"
        }
      ],
      "name": "BountyRequestAdded",
      "type": "event"
    },
    {
      "anonymous": false,
      "inputs": [
        {
          "indexed": true,
          "internalType": "uint256",
          "name": "bountyId",
          "type": "uint256"
        },
        {
          "indexed": true,
          "internalType": "uint256",
          "name": "requestId",
          "type": "uint256"
        }
      ],
      "name": "BountyRequestClosed",
      "type": "event"
    },
    {
      "inputs": [
        {
          "internalType": "uint256",
          "name": "_bountyId",
          "type": "uint256"
        },
        {
          "internalType": "uint256",
          "name": "_requestId",
          "type": "uint256"
        }
      ],
      "name": "acceptBountyRequest",
      "outputs": [],
      "stateMutability": "nonpayable",
      "type": "function"
    },
    {
      "inputs": [
        {
          "internalType": "uint256",
          "name": "",
          "type": "uint256"
        }
      ],
      "name": "bountyLedger",
      "outputs": [
        {
          "internalType": "bool",
          "name": "isClosed",
          "type": "bool"
        },
        {
          "internalType": "address",
          "name": "owner",
          "type": "address"
        },
        {
          "internalType": "uint256",
          "name": "prizeAmount",
          "type": "uint256"
        },
        {
          "internalType": "address",
          "name": "paymentToken",
          "type": "address"
        },
        {
          "internalType": "address",
          "name": "receiver",
          "type": "address"
        },
        {
          "internalType": "string",
          "name": "title",
          "type": "string"
        },
        {
          "internalType": "string",
          "name": "description",
          "type": "string"
        }
      ],
      "stateMutability": "view",
      "type": "function"
    },
    {
      "inputs": [
        {
          "internalType": "uint256",
          "name": "",
          "type": "uint256"
        },
        {
          "internalType": "uint256",
          "name": "",
          "type": "uint256"
        }
      ],
      "name": "bountyRequests",
      "outputs": [
        {
          "internalType": "address",
          "name": "hunter",
          "type": "address"
        },
        {
          "internalType": "uint256",
          "name": "amount",
          "type": "uint256"
        },
        {
          "internalType": "address",
          "name": "bountyToken",
          "type": "address"
        },
        {
          "internalType": "bool",
          "name": "isClosed",
          "type": "bool"
        }
      ],
      "stateMutability": "view",
      "type": "function"
    },
    {
      "inputs": [
        {
          "internalType": "uint256",
          "name": "_bountyId",
          "type": "uint256"
        }
      ],
      "name": "cancelBounty",
      "outputs": [],
      "stateMutability": "nonpayable",
      "type": "function"
    },
    {
      "inputs": [
        {
          "internalType": "uint256",
          "name": "_bountyId",
          "type": "uint256"
        },
        {
          "internalType": "uint256",
          "name": "_requestId",
          "type": "uint256"
        }
      ],
      "name": "cancelBountyRequest",
      "outputs": [],
      "stateMutability": "nonpayable",
      "type": "function"
    },
    {
      "inputs": [
        {
          "internalType": "uint256",
          "name": "_amount",
          "type": "uint256"
        },
        {
          "internalType": "address",
          "name": "_paymentToken",
          "type": "address"
        },
        {
          "internalType": "address",
          "name": "_receiver",
          "type": "address"
        },
        {
          "internalType": "string",
          "name": "_title",
          "type": "string"
        },
        {
          "internalType": "string",
          "name": "_description",
          "type": "string"
        }
      ],
      "name": "createBounty",
      "outputs": [],
      "stateMutability": "nonpayable",
      "type": "function"
    },
    {
      "inputs": [
        {
          "internalType": "uint256",
          "name": "_bountyId",
          "type": "uint256"
        },
        {
          "internalType": "uint256",
          "name": "_amount",
          "type": "uint256"
        },
        {
          "internalType": "address",
          "name": "_bountyToken",
          "type": "address"
        }
      ],
      "name": "createBountyRequest",
      "outputs": [],
      "stateMutability": "nonpayable",
      "type": "function"
    },
    {
      "inputs": [],
      "name": "getBountyList",
      "outputs": [
        {
          "components": [
            {
              "internalType": "bool",
              "name": "isClosed",
              "type": "bool"
            },
            {
              "internalType": "address",
              "name": "owner",
              "type": "address"
            },
            {
              "internalType": "uint256",
              "name": "prizeAmount",
              "type": "uint256"
            },
            {
              "internalType": "address",
              "name": "paymentToken",
              "type": "address"
            },
            {
              "internalType": "address",
              "name": "receiver",
              "type": "address"
            },
            {
              "internalType": "string",
              "name": "title",
              "type": "string"
            },
            {
              "internalType": "string",
              "name": "description",
              "type": "string"
            }
          ],
          "internalType": "struct Bounty[]",
          "name": "",
          "type": "tuple[]"
        }
      ],
      "stateMutability": "view",
      "type": "function"
    },
    {
      "inputs": [
        {
          "internalType": "uint256",
          "name": "_bountId",
          "type": "uint256"
        }
      ],
      "name": "getBountyRequestList",
      "outputs": [
        {
          "components": [
            {
              "internalType": "address",
              "name": "hunter",
              "type": "address"
            },
            {
              "internalType": "uint256",
              "name": "amount",
              "type": "uint256"
            },
            {
              "internalType": "address",
              "name": "bountyToken",
              "type": "address"
            },
            {
              "internalType": "bool",
              "name": "isClosed",
              "type": "bool"
            }
          ],
          "internalType": "struct BountyRequest[]",
          "name": "",
          "type": "tuple[]"
        }
      ],
      "stateMutability": "view",
      "type": "function"
    }
  ],
  "bytecode": {
    "object": "0x608060405234801561001057600080fd5b5061149e806100206000396000f3fe608060405234801561001057600080fd5b50600436106100935760003560e01c80638a58bcfe116100665780638a58bcfe14610126578063e5e5dff114610139578063e90551271461014c578063ece6ca831461015f578063fc30b7da1461017f57600080fd5b80633e1daf8d146100985780634281b8c9146100ad57806359dc1ee0146100fe5780635c6680a614610113575b600080fd5b6100ab6100a6366004611129565b6101a5565b005b6100c06100bb3660046111b8565b610397565b6040516100f594939291906001600160a01b039485168152602081019390935292166040820152901515606082015260800190565b60405180910390f35b6101066103f0565b6040516100f591906112ce565b6100ab6101213660046111b8565b6105c2565b6100ab6101343660046111da565b6109f4565b6100ab610147366004611110565b610b97565b6100ab61015a3660046111b8565b610c3f565b61017261016d366004611110565b610d87565b6040516100f5919061125c565b61019261018d366004611110565b610e33565b6040516100f5979695949392919061139e565b6040805160e08101825260008082523360208084019182529383018981526001600160a01b03898116606086019081528982166080870190815260a087018a815260c088018a90528654600181018855968052875160069097027f290decd9548b62a8d60345a988386fc84ba6bc95484008f6362f93160ef3e563810180549751861661010002610100600160a81b0319991515999099166001600160a81b03199098169790971797909717865593517f290decd9548b62a8d60345a988386fc84ba6bc95484008f6362f93160ef3e56487015590517f290decd9548b62a8d60345a988386fc84ba6bc95484008f6362f93160ef3e565860180549184166001600160a01b031992831617905590517f290decd9548b62a8d60345a988386fc84ba6bc95484008f6362f93160ef3e566860180549190931691161790555180519394919361031a937f290decd9548b62a8d60345a988386fc84ba6bc95484008f6362f93160ef3e56701929190910190610fa5565b5060c08201518051610336916005840191602090910190610fa5565b505050836001600160a01b0316836001600160a01b0316336001600160a01b03167fb370609f89312988dc394e07160212003f8142182cb3c5c712ff92e178f76f188860405161038891815260200190565b60405180910390a45050505050565b600160205281600052604060002081815481106103b357600080fd5b60009182526020909120600390910201805460018201546002909201546001600160a01b039182169450919250811690600160a01b900460ff1684565b60606000805480602002602001604051908101604052809291908181526020016000905b828210156105b95760008481526020908190206040805160e08101825260068602909201805460ff8116151584526001600160a01b036101009091048116948401949094526001810154918301919091526002810154831660608301526003810154909216608082015260048201805491929160a08401919061049690611401565b80601f01602080910402602001604051908101604052809291908181526020018280546104c290611401565b801561050f5780601f106104e45761010080835404028352916020019161050f565b820191906000526020600020905b8154815290600101906020018083116104f257829003601f168201915b5050505050815260200160058201805461052890611401565b80601f016020809104026020016040519081016040528092919081815260200182805461055490611401565b80156105a15780601f10610576576101008083540402835291602001916105a1565b820191906000526020600020905b81548152906001019060200180831161058457829003601f168201915b50505050508152505081526020019060010190610414565b50505050905090565b60008083815481106105d6576105d661143c565b60009182526020918290206040805160e0810182526006909302909101805460ff8116151584526001600160a01b036101009091048116948401949094526001810154918301919091526002810154831660608301526003810154909216608082015260048201805491929160a08401919061065190611401565b80601f016020809104026020016040519081016040528092919081815260200182805461067d90611401565b80156106ca5780601f1061069f576101008083540402835291602001916106ca565b820191906000526020600020905b8154815290600101906020018083116106ad57829003601f168201915b505050505081526020016005820180546106e390611401565b80601f016020809104026020016040519081016040528092919081815260200182805461070f90611401565b801561075c5780601f106107315761010080835404028352916020019161075c565b820191906000526020600020905b81548152906001019060200180831161073f57829003601f168201915b5050505050815250509050600060016000858152602001908152602001600020838154811061078d5761078d61143c565b60009182526020918290206040805160808101825260039390930290910180546001600160a01b0390811684526001820154948401949094526002015492831690820152600160a01b90910460ff161580156060830152909150610804576040516318557a0960e21b815260040160405180910390fd5b81602001516001600160a01b0316336001600160a01b03161461085657602082015160405163163678e960e01b81523360048201526001600160a01b0390911660248201526044015b60405180910390fd5b60016000858154811061086b5761086b61143c565b60009182526020909120600690910201805460ff19169115159190911790556060820151815160408085015190516323b872dd60e01b81523360048201526001600160a01b03928316602482015260448101919091529116906323b872dd90606401602060405180830381600087803b1580156108e757600080fd5b505af11580156108fb573d6000803e3d6000fd5b505050506040513d601f19601f8201168201806040525081019061091f91906110e7565b5060408082015160808401516020840151925163a9059cbb60e01b81526001600160a01b0391821660048201526024810193909352169063a9059cbb90604401602060405180830381600087803b15801561097957600080fd5b505af115801561098d573d6000803e3d6000fd5b505050506040513d601f19601f820116820180604052508101906109b191906110e7565b5080600001516001600160a01b031683857f86160b001abe11fd0d0008cca92f717c6d605f808ed873e0b9636970eaabe35660405160405180910390a450505050565b60008381548110610a0757610a0761143c565b600091825260209091206006909102015460ff1615610a395760405163222ec8d560e21b815260040160405180910390fd5b6040516323b872dd60e01b8152336004820152306024820152604481018390526001600160a01b038216906323b872dd90606401602060405180830381600087803b158015610a8757600080fd5b505af1158015610a9b573d6000803e3d6000fd5b505050506040513d601f19601f82011682018060405250810190610abf91906110e7565b5060008381526001602081815260408084208151608081018352338082528185018981526001600160a01b03898116848701818152606086018b81528754808c018955978c529a8990209551600390970290950180549683166001600160a01b031990971696909617865591519785019790975591516002909301805497511515600160a01b026001600160a81b03199098169390961692909217959095179093555185815286917f41d010bf4bf1fa0aae023286e707222778fdb387435c403cea1ae68810244093910160405180910390a4505050565b6000808281548110610bab57610bab61143c565b60009182526020909120600690910201805490915061010090046001600160a01b03163314610c0557805460405163163678e960e01b81523360048201526101009091046001600160a01b0316602482015260440161084d565b805460ff1916600117815560405182907f69398c75b7e9cd1cc7e731aa1609c8ced3d5478fac94d549b3bf54c75d418b2b90600090a25050565b6000828152600160205260408120805483908110610c5f57610c5f61143c565b6000918252602090912060039091020180549091506001600160a01b03163314610cb057805460405163163678e960e01b81523360048201526001600160a01b03909116602482015260440161084d565b600281018054600160a01b60ff60a01b1982161790915560018201546040516323b872dd60e01b815230600482015233602482015260448101919091526001600160a01b03909116906323b872dd90606401602060405180830381600087803b158015610d1c57600080fd5b505af1158015610d30573d6000803e3d6000fd5b505050506040513d601f19601f82011682018060405250810190610d5491906110e7565b50604051829084907fe306ea7313f9b6cbeb1945aec23e920a39c0bf0266e2a6f9434527df95542b5790600090a3505050565b606060016000838152602001908152602001600020805480602002602001604051908101604052809291908181526020016000905b82821015610e28576000848152602090819020604080516080810182526003860290920180546001600160a01b0390811684526001808301548587015260029092015490811692840192909252600160a01b90910460ff16151560608301529083529092019101610dbc565b505050509050919050565b60008181548110610e4357600080fd5b60009182526020909120600690910201805460018201546002830154600384015460048501805460ff861697506101009095046001600160a01b0390811696949593811694921692610e9490611401565b80601f0160208091040260200160405190810160405280929190818152602001828054610ec090611401565b8015610f0d5780601f10610ee257610100808354040283529160200191610f0d565b820191906000526020600020905b815481529060010190602001808311610ef057829003601f168201915b505050505090806005018054610f2290611401565b80601f0160208091040260200160405190810160405280929190818152602001828054610f4e90611401565b8015610f9b5780601f10610f7057610100808354040283529160200191610f9b565b820191906000526020600020905b815481529060010190602001808311610f7e57829003601f168201915b5050505050905087565b828054610fb190611401565b90600052602060002090601f016020900481019282610fd35760008555611019565b82601f10610fec57805160ff1916838001178555611019565b82800160010185558215611019579182015b82811115611019578251825591602001919060010190610ffe565b50611025929150611029565b5090565b5b80821115611025576000815560010161102a565b80356001600160a01b038116811461105557600080fd5b919050565b600082601f83011261106b57600080fd5b813567ffffffffffffffff8082111561108657611086611452565b604051601f8301601f19908116603f011681019082821181831017156110ae576110ae611452565b816040528381528660208588010111156110c757600080fd5b836020870160208301376000602085830101528094505050505092915050565b6000602082840312156110f957600080fd5b8151801515811461110957600080fd5b9392505050565b60006020828403121561112257600080fd5b5035919050565b600080600080600060a0868803121561114157600080fd5b853594506111516020870161103e565b935061115f6040870161103e565b9250606086013567ffffffffffffffff8082111561117c57600080fd5b61118889838a0161105a565b9350608088013591508082111561119e57600080fd5b506111ab8882890161105a565b9150509295509295909350565b600080604083850312156111cb57600080fd5b50508035926020909101359150565b6000806000606084860312156111ef57600080fd5b83359250602084013591506112066040850161103e565b90509250925092565b6000815180845260005b8181101561123557602081850181015186830182015201611219565b81811115611247576000602083870101525b50601f01601f19169290920160200192915050565b602080825282518282018190526000919060409081850190868401855b828110156112c157815180516001600160a01b039081168652878201518887015286820151168686015260609081015115159085015260809093019290850190600101611279565b5091979650505050505050565b60006020808301818452808551808352604092508286019150828160051b87010184880160005b8381101561139057603f198984030185528151805115158452878101516001600160a01b039081168986015287820151888601526060808301518216908601526080808301519182168187015260e091505060a080830151828288015261135e8388018261120f565b9250505060c0808301519250858203818701525061137c818361120f565b9689019694505050908601906001016112f5565b509098975050505050505050565b87151581526001600160a01b0387811660208301526040820187905285811660608301528416608082015260e060a082018190526000906113e19083018561120f565b82810360c08401526113f3818561120f565b9a9950505050505050505050565b600181811c9082168061141557607f821691505b6020821081141561143657634e487b7160e01b600052602260045260246000fd5b50919050565b634e487b7160e01b600052603260045260246000fd5b634e487b7160e01b600052604160045260246000fdfea2646970667358221220b50736a38930b8d08ac2e4e5957392ea9122272a51b41c3510a69957eb176c3764736f6c63430008060033",
    "linkReferences": {}
  },
  "methodIdentifiers": {
    "acceptBountyRequest(uint256,uint256)": "5c6680a6",
    "bountyLedger(uint256)": "fc30b7da",
    "bountyRequests(uint256,uint256)": "4281b8c9",
    "cancelBounty(uint256)": "e5e5dff1",
    "cancelBountyRequest(uint256,uint256)": "e9055127",
    "createBounty(uint256,address,address,string,string)": "3e1daf8d",
    "createBountyRequest(uint256,uint256,address)": "8a58bcfe",
    "getBountyList()": "59dc1ee0",
    "getBountyRequestList(uint256)": "ece6ca83"
  },
  "id": 12
}