{
    "abi": [
        {
            "inputs": [],
            "name": "BountyClosed",
            "type": "error"
        },
        {
            "inputs": [
                {
                    "internalType": "address",
                    "name": "sender",
                    "type": "address"
                },
                {
                    "internalType": "address",
                    "name": "owner",
                    "type": "address"
                }
            ],
            "name": "CallerNotOwner",
            "type": "error"
        },
        {
            "inputs": [
                {
                    "internalType": "uint256",
                    "name": "index",
                    "type": "uint256"
                }
            ],
            "name": "IndexOutOfBounds",
            "type": "error"
        },
        {
            "inputs": [],
            "name": "RequestClosed",
            "type": "error"
        },
        {
            "anonymous": false,
            "inputs": [
                {
                    "indexed": true,
                    "internalType": "address",
                    "name": "sender",
                    "type": "address"
                },
                {
                    "indexed": true,
                    "internalType": "address",
                    "name": "receiver",
                    "type": "address"
                },
                {
                    "indexed": true,
                    "internalType": "address",
                    "name": "paymentToken",
                    "type": "address"
                },
                {
                    "indexed": false,
                    "internalType": "uint256",
                    "name": "amount",
                    "type": "uint256"
                }
            ],
            "name": "BountyAdded",
            "type": "event"
        },
        {
            "anonymous": false,
            "inputs": [
                {
                    "indexed": true,
                    "internalType": "uint256",
                    "name": "bountyId",
                    "type": "uint256"
                }
            ],
            "name": "BountyClosedByOwner",
            "type": "event"
        },
        {
            "anonymous": false,
            "inputs": [
                {
                    "indexed": true,
                    "internalType": "uint256",
                    "name": "bountyId",
                    "type": "uint256"
                },
                {
                    "indexed": true,
                    "internalType": "uint256",
                    "name": "requestId",
                    "type": "uint256"
                },
                {
                    "indexed": true,
                    "internalType": "address",
                    "name": "hunter",
                    "type": "address"
                }
            ],
            "name": "BountyFinished",
            "type": "event"
        },
        {
            "anonymous": false,
            "inputs": [
                {
                    "indexed": true,
                    "internalType": "uint256",
                    "name": "bountId",
                    "type": "uint256"
                },
                {
                    "indexed": true,
                    "internalType": "address",
                    "name": "hunter",
                    "type": "address"
                },
                {
                    "indexed": true,
                    "internalType": "address",
                    "name": "boutyToken",
                    "type": "address"
                },
                {
                    "indexed": false,
                    "internalType": "uint256",
                    "name": "amount",
                    "type": "uint256"
                }
            ],
            "name": "BountyRequestAdded",
            "type": "event"
        },
        {
            "anonymous": false,
            "inputs": [
                {
                    "indexed": true,
                    "internalType": "uint256",
                    "name": "bountyId",
                    "type": "uint256"
                },
                {
                    "indexed": true,
                    "internalType": "uint256",
                    "name": "requestId",
                    "type": "uint256"
                }
            ],
            "name": "BountyRequestClosed",
            "type": "event"
        },
        {
            "inputs": [
                {
                    "internalType": "uint256",
                    "name": "_bountyId",
                    "type": "uint256"
                },
                {
                    "internalType": "uint256",
                    "name": "_requestId",
                    "type": "uint256"
                }
            ],
            "name": "acceptBountyRequest",
            "outputs": [],
            "stateMutability": "nonpayable",
            "type": "function"
        },
        {
            "inputs": [
                {
                    "internalType": "uint256",
                    "name": "",
                    "type": "uint256"
                }
            ],
            "name": "bountyLedger",
            "outputs": [
                {
                    "internalType": "bool",
                    "name": "isClosed",
                    "type": "bool"
                },
                {
                    "internalType": "address",
                    "name": "owner",
                    "type": "address"
                },
                {
                    "internalType": "uint256",
                    "name": "prizeAmount",
                    "type": "uint256"
                },
                {
                    "internalType": "address",
                    "name": "paymentToken",
                    "type": "address"
                },
                {
                    "internalType": "address",
                    "name": "receiver",
                    "type": "address"
                },
                {
                    "internalType": "string",
                    "name": "description",
                    "type": "string"
                }
            ],
            "stateMutability": "view",
            "type": "function"
        },
        {
            "inputs": [
                {
                    "internalType": "uint256",
                    "name": "",
                    "type": "uint256"
                },
                {
                    "internalType": "uint256",
                    "name": "",
                    "type": "uint256"
                }
            ],
            "name": "bountyRequests",
            "outputs": [
                {
                    "internalType": "address",
                    "name": "hunter",
                    "type": "address"
                },
                {
                    "internalType": "uint256",
                    "name": "amount",
                    "type": "uint256"
                },
                {
                    "internalType": "address",
                    "name": "bountyToken",
                    "type": "address"
                },
                {
                    "internalType": "bool",
                    "name": "isClosed",
                    "type": "bool"
                }
            ],
            "stateMutability": "view",
            "type": "function"
        },
        {
            "inputs": [
                {
                    "internalType": "uint256",
                    "name": "_bountyId",
                    "type": "uint256"
                }
            ],
            "name": "cancelBounty",
            "outputs": [],
            "stateMutability": "nonpayable",
            "type": "function"
        },
        {
            "inputs": [
                {
                    "internalType": "uint256",
                    "name": "_bountyId",
                    "type": "uint256"
                },
                {
                    "internalType": "uint256",
                    "name": "_requestId",
                    "type": "uint256"
                }
            ],
            "name": "cancelBountyRequest",
            "outputs": [],
            "stateMutability": "nonpayable",
            "type": "function"
        },
        {
            "inputs": [
                {
                    "internalType": "uint256",
                    "name": "_amount",
                    "type": "uint256"
                },
                {
                    "internalType": "address",
                    "name": "_paymentToken",
                    "type": "address"
                },
                {
                    "internalType": "address",
                    "name": "_receiver",
                    "type": "address"
                },
                {
                    "internalType": "string",
                    "name": "description",
                    "type": "string"
                }
            ],
            "name": "createBounty",
            "outputs": [],
            "stateMutability": "nonpayable",
            "type": "function"
        },
        {
            "inputs": [
                {
                    "internalType": "uint256",
                    "name": "_bountyId",
                    "type": "uint256"
                },
                {
                    "internalType": "uint256",
                    "name": "_amount",
                    "type": "uint256"
                },
                {
                    "internalType": "address",
                    "name": "_bountyToken",
                    "type": "address"
                }
            ],
            "name": "createBountyRequest",
            "outputs": [],
            "stateMutability": "nonpayable",
            "type": "function"
        }
    ],
    "bytecode": {
        "object": "0x608060405234801561001057600080fd5b50610ee7806100206000396000f3fe608060405234801561001057600080fd5b506004361061007d5760003560e01c80638a58bcfe1161005b5780638a58bcfe146100fb578063e5e5dff11461010e578063e905512714610121578063fc30b7da1461013457600080fd5b806331d643ed146100825780634281b8c9146100975780635c6680a6146100e8575b600080fd5b610095610090366004610c8e565b610159565b005b6100aa6100a5366004610d6a565b610327565b6040516100df94939291906001600160a01b039485168152602081019390935292166040820152901515606082015260800190565b60405180910390f35b6100956100f6366004610d6a565b610380565b610095610109366004610d8c565b610720565b61009561011c366004610c75565b6108c3565b61009561012f366004610d6a565b61096b565b610147610142366004610c75565b610ab3565b6040516100df96959493929190610dc1565b6040805160c08101825260008082523360208084019182529383018881526001600160a01b03888116606086019081528882166080870190815260a087018981528654600181018855968052875160059097027f290decd9548b62a8d60345a988386fc84ba6bc95484008f6362f93160ef3e563810180549751861661010002610100600160a81b0319991515999099166001600160a81b03199098169790971797909717865593517f290decd9548b62a8d60345a988386fc84ba6bc95484008f6362f93160ef3e56487015590517f290decd9548b62a8d60345a988386fc84ba6bc95484008f6362f93160ef3e565860180549184166001600160a01b031992831617905590517f290decd9548b62a8d60345a988386fc84ba6bc95484008f6362f93160ef3e56686018054919093169116179055518051939491936102c7937f290decd9548b62a8d60345a988386fc84ba6bc95484008f6362f93160ef3e56701929190910190610b97565b505050826001600160a01b0316826001600160a01b0316336001600160a01b03167fb370609f89312988dc394e07160212003f8142182cb3c5c712ff92e178f76f188760405161031991815260200190565b60405180910390a450505050565b6001602052816000526040600020818154811061034357600080fd5b60009182526020909120600390910201805460018201546002909201546001600160a01b039182169450919250811690600160a01b900460ff1684565b600080838154811061039457610394610e85565b60009182526020918290206040805160c0810182526005909302909101805460ff8116151584526001600160a01b036101009091048116948401949094526001810154918301919091526002810154831660608301526003810154909216608082015260048201805491929160a08401919061040f90610e4a565b80601f016020809104026020016040519081016040528092919081815260200182805461043b90610e4a565b80156104885780601f1061045d57610100808354040283529160200191610488565b820191906000526020600020905b81548152906001019060200180831161046b57829003601f168201915b505050505081525050905060006001600085815260200190815260200160002083815481106104b9576104b9610e85565b60009182526020918290206040805160808101825260039390930290910180546001600160a01b0390811684526001820154948401949094526002015492831690820152600160a01b90910460ff161580156060830152909150610530576040516318557a0960e21b815260040160405180910390fd5b81602001516001600160a01b0316336001600160a01b03161461058257602082015160405163163678e960e01b81523360048201526001600160a01b0390911660248201526044015b60405180910390fd5b60016000858154811061059757610597610e85565b60009182526020909120600590910201805460ff19169115159190911790556060820151815160408085015190516323b872dd60e01b81523360048201526001600160a01b03928316602482015260448101919091529116906323b872dd90606401602060405180830381600087803b15801561061357600080fd5b505af1158015610627573d6000803e3d6000fd5b505050506040513d601f19601f8201168201806040525081019061064b9190610c4c565b5060408082015160808401516020840151925163a9059cbb60e01b81526001600160a01b0391821660048201526024810193909352169063a9059cbb90604401602060405180830381600087803b1580156106a557600080fd5b505af11580156106b9573d6000803e3d6000fd5b505050506040513d601f19601f820116820180604052508101906106dd9190610c4c565b5080600001516001600160a01b031683857f86160b001abe11fd0d0008cca92f717c6d605f808ed873e0b9636970eaabe35660405160405180910390a450505050565b6000838154811061073357610733610e85565b600091825260209091206005909102015460ff16156107655760405163222ec8d560e21b815260040160405180910390fd5b6040516323b872dd60e01b8152336004820152306024820152604481018390526001600160a01b038216906323b872dd90606401602060405180830381600087803b1580156107b357600080fd5b505af11580156107c7573d6000803e3d6000fd5b505050506040513d601f19601f820116820180604052508101906107eb9190610c4c565b5060008381526001602081815260408084208151608081018352338082528185018981526001600160a01b03898116848701818152606086018b81528754808c018955978c529a8990209551600390970290950180549683166001600160a01b031990971696909617865591519785019790975591516002909301805497511515600160a01b026001600160a81b03199098169390961692909217959095179093555185815286917f41d010bf4bf1fa0aae023286e707222778fdb387435c403cea1ae68810244093910160405180910390a4505050565b60008082815481106108d7576108d7610e85565b60009182526020909120600590910201805490915061010090046001600160a01b0316331461093157805460405163163678e960e01b81523360048201526101009091046001600160a01b03166024820152604401610579565b805460ff1916600117815560405182907f69398c75b7e9cd1cc7e731aa1609c8ced3d5478fac94d549b3bf54c75d418b2b90600090a25050565b600082815260016020526040812080548390811061098b5761098b610e85565b6000918252602090912060039091020180549091506001600160a01b031633146109dc57805460405163163678e960e01b81523360048201526001600160a01b039091166024820152604401610579565b600281018054600160a01b60ff60a01b1982161790915560018201546040516323b872dd60e01b815230600482015233602482015260448101919091526001600160a01b03909116906323b872dd90606401602060405180830381600087803b158015610a4857600080fd5b505af1158015610a5c573d6000803e3d6000fd5b505050506040513d601f19601f82011682018060405250810190610a809190610c4c565b50604051829084907fe306ea7313f9b6cbeb1945aec23e920a39c0bf0266e2a6f9434527df95542b5790600090a3505050565b60008181548110610ac357600080fd5b60009182526020909120600590910201805460018201546002830154600384015460048501805460ff861697506101009095046001600160a01b0390811696949593811694921692610b1490610e4a565b80601f0160208091040260200160405190810160405280929190818152602001828054610b4090610e4a565b8015610b8d5780601f10610b6257610100808354040283529160200191610b8d565b820191906000526020600020905b815481529060010190602001808311610b7057829003601f168201915b5050505050905086565b828054610ba390610e4a565b90600052602060002090601f016020900481019282610bc55760008555610c0b565b82601f10610bde57805160ff1916838001178555610c0b565b82800160010185558215610c0b579182015b82811115610c0b578251825591602001919060010190610bf0565b50610c17929150610c1b565b5090565b5b80821115610c175760008155600101610c1c565b80356001600160a01b0381168114610c4757600080fd5b919050565b600060208284031215610c5e57600080fd5b81518015158114610c6e57600080fd5b9392505050565b600060208284031215610c8757600080fd5b5035919050565b60008060008060808587031215610ca457600080fd5b84359350610cb460208601610c30565b9250610cc260408601610c30565b9150606085013567ffffffffffffffff80821115610cdf57600080fd5b818701915087601f830112610cf357600080fd5b813581811115610d0557610d05610e9b565b604051601f8201601f19908116603f01168101908382118183101715610d2d57610d2d610e9b565b816040528281528a6020848701011115610d4657600080fd5b82602086016020830137600060208483010152809550505050505092959194509250565b60008060408385031215610d7d57600080fd5b50508035926020909101359150565b600080600060608486031215610da157600080fd5b8335925060208401359150610db860408501610c30565b90509250925092565b86151581526000602060018060a01b0380891682850152876040850152808716606085015280861660808501525060c060a084015283518060c085015260005b81811015610e1d5785810183015185820160e001528201610e01565b81811115610e2f57600060e083870101525b50601f01601f19169290920160e00198975050505050505050565b600181811c90821680610e5e57607f821691505b60208210811415610e7f57634e487b7160e01b600052602260045260246000fd5b50919050565b634e487b7160e01b600052603260045260246000fd5b634e487b7160e01b600052604160045260246000fdfea26469706673582212201007cc8aa5a849ccb0e7533c53ce39b98992bdcd9baec8a08ca8ff6aaa53529a64736f6c63430008060033",
        "linkReferences": {}
    },
    "methodIdentifiers": {
        "acceptBountyRequest(uint256,uint256)": "5c6680a6",
        "bountyLedger(uint256)": "fc30b7da",
        "bountyRequests(uint256,uint256)": "4281b8c9",
        "cancelBounty(uint256)": "e5e5dff1",
        "cancelBountyRequest(uint256,uint256)": "e9055127",
        "createBounty(uint256,address,address,string)": "31d643ed",
        "createBountyRequest(uint256,uint256,address)": "8a58bcfe"
    },
    "id": 11
}