{
  "abi": [
    {
      "inputs": [],
      "name": "BountyClosed",
      "type": "error"
    },
    {
      "inputs": [
        {
          "internalType": "address",
          "name": "sender",
          "type": "address"
        },
        {
          "internalType": "address",
          "name": "owner",
          "type": "address"
        }
      ],
      "name": "CallerNotOwner",
      "type": "error"
    },
    {
      "inputs": [
        {
          "internalType": "uint256",
          "name": "index",
          "type": "uint256"
        }
      ],
      "name": "IndexOutOfBounds",
      "type": "error"
    },
    {
      "inputs": [],
      "name": "RequestClosed",
      "type": "error"
    },
    {
      "anonymous": false,
      "inputs": [
        {
          "indexed": true,
          "internalType": "address",
          "name": "sender",
          "type": "address"
        },
        {
          "indexed": true,
          "internalType": "address",
          "name": "receiver",
          "type": "address"
        },
        {
          "indexed": true,
          "internalType": "address",
          "name": "paymentToken",
          "type": "address"
        },
        {
          "indexed": false,
          "internalType": "uint256",
          "name": "amount",
          "type": "uint256"
        }
      ],
      "name": "BountyAdded",
      "type": "event"
    },
    {
      "anonymous": false,
      "inputs": [
        {
          "indexed": true,
          "internalType": "uint256",
          "name": "bountyId",
          "type": "uint256"
        }
      ],
      "name": "BountyClosedByOwner",
      "type": "event"
    },
    {
      "anonymous": false,
      "inputs": [
        {
          "indexed": true,
          "internalType": "uint256",
          "name": "bountyId",
          "type": "uint256"
        },
        {
          "indexed": true,
          "internalType": "uint256",
          "name": "requestId",
          "type": "uint256"
        },
        {
          "indexed": true,
          "internalType": "address",
          "name": "hunter",
          "type": "address"
        }
      ],
      "name": "BountyFinished",
      "type": "event"
    },
    {
      "anonymous": false,
      "inputs": [
        {
          "indexed": true,
          "internalType": "uint256",
          "name": "bountId",
          "type": "uint256"
        },
        {
          "indexed": true,
          "internalType": "address",
          "name": "hunter",
          "type": "address"
        },
        {
          "indexed": true,
          "internalType": "address",
          "name": "boutyToken",
          "type": "address"
        },
        {
          "indexed": false,
          "internalType": "uint256",
          "name": "amount",
          "type": "uint256"
        }
      ],
      "name": "BountyRequestAdded",
      "type": "event"
    },
    {
      "anonymous": false,
      "inputs": [
        {
          "indexed": true,
          "internalType": "uint256",
          "name": "bountyId",
          "type": "uint256"
        },
        {
          "indexed": true,
          "internalType": "uint256",
          "name": "requestId",
          "type": "uint256"
        }
      ],
      "name": "BountyRequestClosed",
      "type": "event"
    },
    {
      "inputs": [
        {
          "internalType": "uint256",
          "name": "_bountyId",
          "type": "uint256"
        },
        {
          "internalType": "uint256",
          "name": "_requestId",
          "type": "uint256"
        }
      ],
      "name": "acceptBountyRequest",
      "outputs": [],
      "stateMutability": "nonpayable",
      "type": "function"
    },
    {
      "inputs": [
        {
          "internalType": "uint256",
          "name": "",
          "type": "uint256"
        }
      ],
      "name": "bountyLedger",
      "outputs": [
        {
          "internalType": "bool",
          "name": "isClosed",
          "type": "bool"
        },
        {
          "internalType": "address",
          "name": "owner",
          "type": "address"
        },
        {
          "internalType": "uint256",
          "name": "prizeAmount",
          "type": "uint256"
        },
        {
          "internalType": "address",
          "name": "paymentToken",
          "type": "address"
        },
        {
          "internalType": "address",
          "name": "receiver",
          "type": "address"
        },
        {
          "internalType": "string",
          "name": "title",
          "type": "string"
        },
        {
          "internalType": "string",
          "name": "description",
          "type": "string"
        }
      ],
      "stateMutability": "view",
      "type": "function"
    },
    {
      "inputs": [
        {
          "internalType": "uint256",
          "name": "",
          "type": "uint256"
        },
        {
          "internalType": "uint256",
          "name": "",
          "type": "uint256"
        }
      ],
      "name": "bountyRequests",
      "outputs": [
        {
          "internalType": "address",
          "name": "hunter",
          "type": "address"
        },
        {
          "internalType": "uint256",
          "name": "amount",
          "type": "uint256"
        },
        {
          "internalType": "address",
          "name": "bountyToken",
          "type": "address"
        },
        {
          "internalType": "bool",
          "name": "isClosed",
          "type": "bool"
        }
      ],
      "stateMutability": "view",
      "type": "function"
    },
    {
      "inputs": [
        {
          "internalType": "uint256",
          "name": "_bountyId",
          "type": "uint256"
        }
      ],
      "name": "cancelBounty",
      "outputs": [],
      "stateMutability": "nonpayable",
      "type": "function"
    },
    {
      "inputs": [
        {
          "internalType": "uint256",
          "name": "_bountyId",
          "type": "uint256"
        },
        {
          "internalType": "uint256",
          "name": "_requestId",
          "type": "uint256"
        }
      ],
      "name": "cancelBountyRequest",
      "outputs": [],
      "stateMutability": "nonpayable",
      "type": "function"
    },
    {
      "inputs": [
        {
          "internalType": "uint256",
          "name": "_amount",
          "type": "uint256"
        },
        {
          "internalType": "address",
          "name": "_paymentToken",
          "type": "address"
        },
        {
          "internalType": "address",
          "name": "_receiver",
          "type": "address"
        },
        {
          "internalType": "string",
          "name": "_title",
          "type": "string"
        },
        {
          "internalType": "string",
          "name": "_description",
          "type": "string"
        }
      ],
      "name": "createBounty",
      "outputs": [],
      "stateMutability": "nonpayable",
      "type": "function"
    },
    {
      "inputs": [
        {
          "internalType": "uint256",
          "name": "_bountyId",
          "type": "uint256"
        },
        {
          "internalType": "uint256",
          "name": "_amount",
          "type": "uint256"
        },
        {
          "internalType": "address",
          "name": "_bountyToken",
          "type": "address"
        }
      ],
      "name": "createBountyRequest",
      "outputs": [],
      "stateMutability": "nonpayable",
      "type": "function"
    }
  ],
  "bytecode": {
    "object": "0x608060405234801561001057600080fd5b50611093806100206000396000f3fe608060405234801561001057600080fd5b506004361061007d5760003560e01c80638a58bcfe1161005b5780638a58bcfe146100fb578063e5e5dff11461010e578063e905512714610121578063fc30b7da1461013457600080fd5b80633e1daf8d146100825780634281b8c9146100975780635c6680a6146100e8575b600080fd5b610095610090366004610e60565b61015a565b005b6100aa6100a5366004610eef565b61034c565b6040516100df94939291906001600160a01b039485168152602081019390935292166040820152901515606082015260800190565b60405180910390f35b6100956100f6366004610eef565b6103a5565b610095610109366004610f11565b6107d7565b61009561011c366004610e47565b61097a565b61009561012f366004610eef565b610a22565b610147610142366004610e47565b610b6a565b6040516100df9796959493929190610f93565b6040805160e08101825260008082523360208084019182529383018981526001600160a01b03898116606086019081528982166080870190815260a087018a815260c088018a90528654600181018855968052875160069097027f290decd9548b62a8d60345a988386fc84ba6bc95484008f6362f93160ef3e563810180549751861661010002610100600160a81b0319991515999099166001600160a81b03199098169790971797909717865593517f290decd9548b62a8d60345a988386fc84ba6bc95484008f6362f93160ef3e56487015590517f290decd9548b62a8d60345a988386fc84ba6bc95484008f6362f93160ef3e565860180549184166001600160a01b031992831617905590517f290decd9548b62a8d60345a988386fc84ba6bc95484008f6362f93160ef3e56686018054919093169116179055518051939491936102cf937f290decd9548b62a8d60345a988386fc84ba6bc95484008f6362f93160ef3e56701929190910190610cdc565b5060c082015180516102eb916005840191602090910190610cdc565b505050836001600160a01b0316836001600160a01b0316336001600160a01b03167fb370609f89312988dc394e07160212003f8142182cb3c5c712ff92e178f76f188860405161033d91815260200190565b60405180910390a45050505050565b6001602052816000526040600020818154811061036857600080fd5b60009182526020909120600390910201805460018201546002909201546001600160a01b039182169450919250811690600160a01b900460ff1684565b60008083815481106103b9576103b9611031565b60009182526020918290206040805160e0810182526006909302909101805460ff8116151584526001600160a01b036101009091048116948401949094526001810154918301919091526002810154831660608301526003810154909216608082015260048201805491929160a08401919061043490610ff6565b80601f016020809104026020016040519081016040528092919081815260200182805461046090610ff6565b80156104ad5780601f10610482576101008083540402835291602001916104ad565b820191906000526020600020905b81548152906001019060200180831161049057829003601f168201915b505050505081526020016005820180546104c690610ff6565b80601f01602080910402602001604051908101604052809291908181526020018280546104f290610ff6565b801561053f5780601f106105145761010080835404028352916020019161053f565b820191906000526020600020905b81548152906001019060200180831161052257829003601f168201915b5050505050815250509050600060016000858152602001908152602001600020838154811061057057610570611031565b60009182526020918290206040805160808101825260039390930290910180546001600160a01b0390811684526001820154948401949094526002015492831690820152600160a01b90910460ff1615801560608301529091506105e7576040516318557a0960e21b815260040160405180910390fd5b81602001516001600160a01b0316336001600160a01b03161461063957602082015160405163163678e960e01b81523360048201526001600160a01b0390911660248201526044015b60405180910390fd5b60016000858154811061064e5761064e611031565b60009182526020909120600690910201805460ff19169115159190911790556060820151815160408085015190516323b872dd60e01b81523360048201526001600160a01b03928316602482015260448101919091529116906323b872dd90606401602060405180830381600087803b1580156106ca57600080fd5b505af11580156106de573d6000803e3d6000fd5b505050506040513d601f19601f820116820180604052508101906107029190610e1e565b5060408082015160808401516020840151925163a9059cbb60e01b81526001600160a01b0391821660048201526024810193909352169063a9059cbb90604401602060405180830381600087803b15801561075c57600080fd5b505af1158015610770573d6000803e3d6000fd5b505050506040513d601f19601f820116820180604052508101906107949190610e1e565b5080600001516001600160a01b031683857f86160b001abe11fd0d0008cca92f717c6d605f808ed873e0b9636970eaabe35660405160405180910390a450505050565b600083815481106107ea576107ea611031565b600091825260209091206006909102015460ff161561081c5760405163222ec8d560e21b815260040160405180910390fd5b6040516323b872dd60e01b8152336004820152306024820152604481018390526001600160a01b038216906323b872dd90606401602060405180830381600087803b15801561086a57600080fd5b505af115801561087e573d6000803e3d6000fd5b505050506040513d601f19601f820116820180604052508101906108a29190610e1e565b5060008381526001602081815260408084208151608081018352338082528185018981526001600160a01b03898116848701818152606086018b81528754808c018955978c529a8990209551600390970290950180549683166001600160a01b031990971696909617865591519785019790975591516002909301805497511515600160a01b026001600160a81b03199098169390961692909217959095179093555185815286917f41d010bf4bf1fa0aae023286e707222778fdb387435c403cea1ae68810244093910160405180910390a4505050565b600080828154811061098e5761098e611031565b60009182526020909120600690910201805490915061010090046001600160a01b031633146109e857805460405163163678e960e01b81523360048201526101009091046001600160a01b03166024820152604401610630565b805460ff1916600117815560405182907f69398c75b7e9cd1cc7e731aa1609c8ced3d5478fac94d549b3bf54c75d418b2b90600090a25050565b6000828152600160205260408120805483908110610a4257610a42611031565b6000918252602090912060039091020180549091506001600160a01b03163314610a9357805460405163163678e960e01b81523360048201526001600160a01b039091166024820152604401610630565b600281018054600160a01b60ff60a01b1982161790915560018201546040516323b872dd60e01b815230600482015233602482015260448101919091526001600160a01b03909116906323b872dd90606401602060405180830381600087803b158015610aff57600080fd5b505af1158015610b13573d6000803e3d6000fd5b505050506040513d601f19601f82011682018060405250810190610b379190610e1e565b50604051829084907fe306ea7313f9b6cbeb1945aec23e920a39c0bf0266e2a6f9434527df95542b5790600090a3505050565b60008181548110610b7a57600080fd5b60009182526020909120600690910201805460018201546002830154600384015460048501805460ff861697506101009095046001600160a01b0390811696949593811694921692610bcb90610ff6565b80601f0160208091040260200160405190810160405280929190818152602001828054610bf790610ff6565b8015610c445780601f10610c1957610100808354040283529160200191610c44565b820191906000526020600020905b815481529060010190602001808311610c2757829003601f168201915b505050505090806005018054610c5990610ff6565b80601f0160208091040260200160405190810160405280929190818152602001828054610c8590610ff6565b8015610cd25780601f10610ca757610100808354040283529160200191610cd2565b820191906000526020600020905b815481529060010190602001808311610cb557829003601f168201915b5050505050905087565b828054610ce890610ff6565b90600052602060002090601f016020900481019282610d0a5760008555610d50565b82601f10610d2357805160ff1916838001178555610d50565b82800160010185558215610d50579182015b82811115610d50578251825591602001919060010190610d35565b50610d5c929150610d60565b5090565b5b80821115610d5c5760008155600101610d61565b80356001600160a01b0381168114610d8c57600080fd5b919050565b600082601f830112610da257600080fd5b813567ffffffffffffffff80821115610dbd57610dbd611047565b604051601f8301601f19908116603f01168101908282118183101715610de557610de5611047565b81604052838152866020858801011115610dfe57600080fd5b836020870160208301376000602085830101528094505050505092915050565b600060208284031215610e3057600080fd5b81518015158114610e4057600080fd5b9392505050565b600060208284031215610e5957600080fd5b5035919050565b600080600080600060a08688031215610e7857600080fd5b85359450610e8860208701610d75565b9350610e9660408701610d75565b9250606086013567ffffffffffffffff80821115610eb357600080fd5b610ebf89838a01610d91565b93506080880135915080821115610ed557600080fd5b50610ee288828901610d91565b9150509295509295909350565b60008060408385031215610f0257600080fd5b50508035926020909101359150565b600080600060608486031215610f2657600080fd5b8335925060208401359150610f3d60408501610d75565b90509250925092565b6000815180845260005b81811015610f6c57602081850181015186830182015201610f50565b81811115610f7e576000602083870101525b50601f01601f19169290920160200192915050565b87151581526001600160a01b0387811660208301526040820187905285811660608301528416608082015260e060a08201819052600090610fd690830185610f46565b82810360c0840152610fe88185610f46565b9a9950505050505050505050565b600181811c9082168061100a57607f821691505b6020821081141561102b57634e487b7160e01b600052602260045260246000fd5b50919050565b634e487b7160e01b600052603260045260246000fd5b634e487b7160e01b600052604160045260246000fdfea264697066735822122097cc03dcd07fb82df47e9b9803b7c2f6f96f0cd25c98938ecafd146b64555c4164736f6c63430008060033",
    "linkReferences": {}
  },
  "methodIdentifiers": {
    "acceptBountyRequest(uint256,uint256)": "5c6680a6",
    "bountyLedger(uint256)": "fc30b7da",
    "bountyRequests(uint256,uint256)": "4281b8c9",
    "cancelBounty(uint256)": "e5e5dff1",
    "cancelBountyRequest(uint256,uint256)": "e9055127",
    "createBounty(uint256,address,address,string,string)": "3e1daf8d",
    "createBountyRequest(uint256,uint256,address)": "8a58bcfe"
  },
  "id": 12
}